:020000040000FA
:100000008316031300308100831203138B018C01CC
:100010008D0183160317880189018312031385015B
:10002000860109308700F630F3000930F40007300C
:100030008A001430F1008316031380308500860196
:100040008030870083160317483087008316031318
:100050009A010230990024309800831203139030E3
:1000600098008316031307110530920083120313BF
:1000700097019D01033095000C3097008C01910190
:100080000430920007168312031702308F000030ED
:100090008D00BF20831203130712F10B4A280716A5
:1000A000512852286D28542800008C1E53281A0805
:1000B000F10300008600F10B582864285F28000037
:1000C0008C1E5E281A088600730800000000870551
:1000D0007408870400006C286D286E2800008C1EB0
:1000E0006D281A08F000E039F100F10EFD2EF10341
:1000F0007928F10B77280000730887148705831689
:100100008609831200000608990074088704871086
:1001100083168601831200006D281430F1009028A8
:100120004A28F730F3000830F4006D28FE30F30061
:100130000130F4006D28F630F3000930F4006D282A
:100140000B309900A3286D2853309900A7286D28FB
:10015000A92800008C1EA8281A08F200AF28FA303F
:10016000F1000000B328B428B528B6280000F10B30
:10017000B2280000F20BAF28000099016D28831609
:1001800003178C170C140000000083120C08F500F4
:100190000E08F6008F0A8D0F8F033F3C03190800ED
:1001A0000313F61AE0287608850075088600D8281B
:1001B00000007308870574088704DE280000BF2844
:1001C00076081F39F60075080319F603F50376085B
:1001D0007504EA28EB28EC28ED28EE28EF28F02813
:1001E000F128F228F328F428F528F628F728F8282B
:1001F000F928FA28FB28FC28FD28FE28FF280029DA
:10020000012902290000031DE3280000072908290D
:02021000BF2805
:100400008833883300000001000200030004000567
:100410000006000700080009000A000B000C000D90
:10042000000E000F00100011001200130014001540
:100430000016001700180015801607171F181B005C
:100440000D01D005F9066F070D08D00CF90DC70E88
:100450000C0FD013F9142104310B2112C429FA0016
:100460000C013D070D08D80E0C0FC429D8000C0153
:100470001B070D08C70E0C0FC429C7000C012C0761
:100480000D08B70E0C0FC429E9000C014E070D082A
:10049000A60E0C0FC4290A000D011B070D08B70E8C
:1004A0000C0FC4294E000D01FA070C08C70E0C0FE3
:1004B000C4292C000D010A070D08D80E0C0FC42901
:1004C0001B000D012C070D08C70E0C0FC4293D00A1
:1004D0000D011B070D08B70E0C0FC4296F000D018D
:1004E000E9070C08A60E0C0FC429FA000C013D0701
:1004F0000D08D80E0C0FC429D8000C011B070D08DD
:10050000C70E0C0FC429C7000C012C070D08B70E2D
:100510000C0FC429E9000C014E070D08A60E0C0FA4
:10052000C4290A000D011B070D08B70E0C0FC429C2
:100530004E000D01FA070C08C70E0C0FC4292C0041
:100540000D010A070D08D80E0C0FC4291B000D0160
:100550002C070D08C70E0C0FC4293D000D011B0709
:100560000D08B70E0C0FC4296F000D01E9070C0828
:10057000A60E0C0FC429A1000D01D8070C08B70E58
:100580000C0FC42980000D01FA070C08C70E0C0FD0
:10059000C429B2000D010A070D08B70E0C0FC429BB
:1005A000D4000D012C070D08A60E0C0FC429E50080
:1005B0000D010A070D08950E0C0FC429C3000D018B
:1005C000E9070C08A60E0C0FC429A1000D01C707EE
:1005D0000C08950E0C0FC429D4000D01D8070C0887
:1005E000840E0C0FC42906000E01B7070C08730E09
:1005F0000C0FC42917000E0195070C08840E0C0F70
:10060000C42949000E01A6070C08950E0C0FC42939
:1006100038000E0184070C08840E0C0FC4295A0000
:100620000E0152070C08730E0C0FC4298C000E012A
:1006300030070C08840E0C0FC4299D000E016307BF
:100640000C08730E0C0FC4297C000E0141070C0826
:10065000630E0C0FC4296B000E010F070C08520E1D
:100660000C0FC429AE000E01CC070B08630E0C0F53
:10067000C429F1000E01ED070B08730E0C0FC429FD
:1006800023000F01BB070B08630E0C0FC4290200E7
:100690000F0189070B08730E0C0FC42934000F01DA
:1006A00099070B08520E0C0FC42999000F01670718
:1006B0000B08630E0C0FC429BA000F0135070B0895
:1006C000410E0C0FC42988000F0156070B08520E6B
:1006D0000C0FC429CB000F0124070B08200E0C0FB0
:1006E000C4291F001001F2070A08410E0C0FC4298B
:1006F00062001001AE070A08200E0C0FC429410049
:100700001001D0070A08FE0E0B0FC429B600100115
:10071000E1070A08ED0E0B0FC429D8001001BF072E
:100720000A080F0E0C0FC429A50010018D070A0836
:10073000DC0E0B0FC429F90010015B070A08BB0E81
:100740000B0FC4295E0011017C070A08ED0E0B0F88
:10075000C429C20011016B070A08AA0E0B0FC42995
:10076000060012014A070A08990E0B0FC429E4007B
:10077000110117070A08CC0E0B0FC429F50011014F
:1007800007070A08890E0B0FC42949001201280720
:100790000A08560E0B0FC429AD00120139070A08CA
:1007A000780E0B0FC4292300130117070A08240E23
:1007B0000B0FC4296600130107070A08450E0B0F2B
:1007C000C42944001301E5070908E10E0A0FC429F2
:1007D00098001301D40709089E0E0A0FC42951007E
:1007E0001401F60709085B0E0A0FC42994001401CE
:1007F000C40709088D0E0A0FC42972001401A2074C
:100800000908AE0E0A0FC429D7001401B30709085E
:100810006B0E0A0FC4294D001501D4070908170EE5
:100820000A0FC429D3001501E5070908B30E090F03
:10083000C4299C001601C4070908E50E090FC42944
:100840004800160180070908A20E090FC429CE002E
:1008500016014E0709082C0E090FC429870017013D
:100860005F0709084E0E090FC4299300180170078D
:100870000908D90E080FC429400018013D070908CE
:10088000630E080FC4296E0019010B070908950EA5
:10089000080FC429B1001901E9070808310E080F33
:1008A000C4297A001A01FA070808BB0E070FC429E9
:1008B00065001B011C070908350E070FC429DF005E
:1008C0001A014E070908570E070FC42933001B01F0
:1008D00070070908F20E060FC429B4001C01910725
:1008E00009089E0E060FC4294C001D01B307090814
:1008F000390E060FC429D6001C01C40709085B0E77
:10090000060FC4298F001D01D4070908180E060F11
:10091000C429CD001E01C4070908C40E050FC4294F
:1009200071002001B3070908F60E050FC4298E00D7
:100930002101A2070908920E050FC4290800210110
:10094000910709085F0E050FC429D1002101800716
:100950000908810E050FC429EE002201910709083C
:100960004F0E050FC4292D002401A20709082D0EE2
:10097000050FC4293A002501B30709080B0E050F1E
:10098000C429F2002501C40709081C0E050FC4295B
:100990009A002601B3070908FB0E040FC4292000A2
:1009A0002701A2070908D90E040FC429AB002601AC
:1009B00091070908EA0E040FC429250026018007C3
:1009C0000908D90E040FC429C000250191070908A0
:1009D000C80E040FC42935002601A2070908B80E65
:1009E000040FC42989002601B3070908A70E040FC4
:1009F000C42920002701C4070908B80E040FC42920
:100A000078002601B3070908C80E040FC429250081
:100A10002601A2070908D90E040FC429780026016F
:100A200091070908C80E040FC429AB0026018007EE
:100A30000908B80E040FC429780026019107090897
:100A4000C80E040FC42935002601A2070908C80EE4
:100A5000040FC4297800260191070908D90E040F54
:100A6000C42935002601A2070908C80E040FC429AD
:100A700089002601B3070908B80E040FC429200015
:100A80002701A2070908A70E040FC4297800260130
:100A900091070908B80E040FC42925002601A207F2
:100AA0000908C80E040FC42978002601B3070908F5
:100AB000D90E040FC429AB002601A2070908C80EED
:100AC000040FC4297800260191070908B80E040F05
:100AD000C42935002601A2070908C80E040FC4293D
:100AE00078002601B3070908D90E040FC429350080
:100AF0002601A2070908C80E040FC429890026018F
:100B0000B3070908B80E040FC42920002701A20763
:100B10000908A70E040FC4297800260191070908C7
:100B2000B80E040FC42925002601A2070908C80E23
:100B3000040FC42978002601B3070908D90E040F51
:100B4000C429AB002601A2070908C80E040FC42956
:100B50007800260191070908B80E040FC429350052
:100B60002601A2070908C80E040FC429780026012F
:100B7000B3070908D90E040FC42935002601A207BE
:100B80000908C80E040FC42989002601B307090803
:100B9000B80E040FC42920002701A2070908A70ED8
:100BA000040FC4297800260191070908B80E040F24
:100BB000C42925002601A2070908C80E040FC4296C
:100BC00078002601B3070908D90E040FC429AB0029
:100BD0002601A2070908C80E040FC42978002601BF
:100BE00091070908B80E040FC42935002601A20791
:100BF0000908C80E040FC42978002601B3070908A4
:100C0000D90E040FC42935002601A2070908C80E11
:100C1000040FC42989002601B3070908B80E040F80
:100C2000C42920002701A2070908A70E040FC42920
:100C30007800260191070908B80E040FC429250081
:100C40002601A2070908C80E040FC429780026014E
:100C5000B3070908D90E040FC429AB002601A20767
:100C60000908C80E040FC429780026019107090855
:100C7000B80E040FC42935002601A2070908C80EC2
:100C8000040FC42978002601A2070908C80E040F22
:100C90002004300B2012883388338833883388331C
:100CA000883388338833883388338833883388336C
:0E0CB000883388338833883388338833FF3F96
:060DFA0070088500820074
:100E00005E285E285E285E285E285E285E285E28B2
:100E10005E285E285E285E285E285E285E285E28A2
:100E20005E285E285E285E285E285E285E285E2892
:100E30005E287C287C287C287C280000000000009C
:100E400053285328532853285328532853285328CA
:100E500053285328532853285328532853285328BA
:100E600053285328532853285328532853285328AA
:100E7000532877287728772877280000000000007B
:100E8000532853285328532853285328532853288A
:100E9000532853285328532853285328532853287A
:100EA000532853285328532853285328532853286A
:100EB000532877287728772877280000000000003B
:100EC000532853285328532853285328532853284A
:100ED000532853285328532853285328532853283A
:100EE000532853285328532853285328532853282A
:100EF00053287728772877287728000000000000FB
:100F00005328532853285328532853285328532809
:100F100053285328532853285328532853285328F9
:100F200053285328532853285328532853285328E9
:100F3000532877287728772877286D28A828000055
:100F400053285328532853285328532853285328C9
:100F500053285328532853285328532853285328B9
:100F600053285328532853285328532853285328A9
:100F700053287728772877287728912896289B2840
:100F80005328532853285328532853285328532889
:100F90005328532853285328532853285328532879
:100FA0005328532853285328532853285328532869
:100FB000532877287728772877280000000000003A
:100FC0005328532853285328532853285328532849
:100FD0005328532853285328532853285328532839
:100FE0005328532853285328532853285328532829
:100FF00053287728772877287728A028A4288D28B1
:02400E00E323AA
:02401000FF3F70
:00000001FF
